:020000040800F2
:100000003807002065010008952400081B2000081F
:1000100000000000000000000000000000000000E0
:10002000000000000000000000000000CD260008D5
:10003000000000000000000021260008CF26000874
:100040007701000800000000770100087701000830
:10005000770100087701000877010008E30E000827
:100060000000000077010008770100087701000810
:100070007701000877010008770100080000000000
:100080007701000800000000000000004127000880
:1000900000000000770100087701000877010008E0
:1000A0007701000877010008770100087701000850
:1000B00077010008000000000000000000000000C0
:1000C00000F002F800F03EF80CA030C80838241800
:1000D0002D18A246671EAB4654465D46AC4201D180
:1000E00000F030F87E460F3E0FCCB6460126334274
:1000F00000D0FB1AA246AB46334318472429000020
:1001000044290000103A02D378C878C1FAD85207BF
:1001100001D330C830C101D504680C6070470000BD
:100120000023002400250026103A01D378C1FBD813
:10013000520700D330C100D50B6070471FB51FBDFB
:1001400010B510BD00F070FE1146FFF7F7FF02F08A
:1001500065FB00F088FE03B4FFF7F2FF03BC00F07C
:100160008FFE00000748804707480047FEE7FEE78C
:10017000FEE7FEE7FEE7FEE704480549054A064BB1
:10018000704700003F270008C10000083801002028
:1001900038070020380300203803002001E004C0A5
:1001A000091F0429FBD28B0701D50280801CC907D7
:1001B00000D00270704700290BD0C30702D0027034
:1001C000401C491E022904D3830702D50280801CEB
:1001D000891EE3E70022EEE70022DFE700220309A1
:1001E0008B422CD3030A8B4211D300239C464EE052
:1001F00003460B433CD4002243088B4231D303090E
:100200008B421CD3030A8B4201D394463FE0C309BF
:100210008B4201D3CB01C01A524183098B4201D3D7
:100220008B01C01A524143098B4201D34B01C01AC2
:10023000524103098B4201D30B01C01A5241C3083A
:100240008B4201D3CB00C01A524183088B4201D3A9
:100250008B00C01A524143088B4201D34B00C01A95
:100260005241411A00D201465241104670475DE0AA
:10027000CA0F00D04942031000D34042534000222D
:100280009C4603098B422DD3030A8B4212D3FC22D6
:10029000890112BA030A8B420CD3890192118B4255
:1002A00008D3890192118B4204D389013AD092116B
:1002B00000E08909C3098B4201D3CB01C01A524126
:1002C00083098B4201D38B01C01A524143098B42EF
:1002D00001D34B01C01A524103098B4201D30B01D8
:1002E000C01A5241C3088B4201D3CB00C01A5241FD
:1002F00083088B4201D38B00C01A5241D9D24308E4
:100300008B4201D34B00C01A5241411A00D2014620
:10031000634652415B10104601D34042002B00D58A
:100320004942704763465B1000D3404201B500204C
:10033000C046C04602BD7047704770470246C80FAE
:10034000C00781434B0030B54B405B009B0D20D074
:100350001923DB06C91801231B05994220DB03245E
:10036000A40704251346AB400BD3002B04D1EB06A6
:1003700013409B00E34204D40124640700231219B4
:100380005941FF231B0599420BD2C9000143500F6D
:1003900009E0CB0204D501430803024305D0054818
:1003A00030BDFF21C905084330BD084607210905B6
:1003B000884330BD0000C07FF0B50C46871A9C41D1
:1003C0000D46861A9D4103D2C01BA141D21963413B
:1003D0000D0D1F0DC94EEC1BAE435CD07F057F0D8C
:1003E0000026002F51D02D05AC46A943DD02012384
:1003F000ED0A1B051D4320231B1B24D41746E74091
:10040000381871412F46E740CC199D4028183146D5
:1004100061410C0D27D161449A4013D50023401C43
:10042000594152000ED14008400001224B005205B4
:10043000D34207D305204007C14201D5B04900E0AF
:10044000B0493046F0BD6B00002A00D001229A1856
:100450001F23203C1B1B01D5002302E0E540281888
:1004600071410C0DD7D0012424050919C407CD070B
:1004700040084908E40F28436144002CD5D00024EB
:10048000401C61419A40D0D1CDE76A05520DD9D1C7
:10049000C90FC907D5E79C4D4E00002801D00124A3
:1004A00000E0002434195F00002A01D0012600E09A
:1004B0000026BE19954FAC420CD8AE420AD8B442C1
:1004C00006D001256D05EC42BCD010461946F0BDA2
:1004D0009942FCD000203946F0BDF0B51FB40C465F
:1004E0000F46811A9F412546861A9D4106D2012555
:1004F000ED076F40401ABC4152187B41210D1E0D83
:100500008D1BAC467D4D8D437ED075056D0D7CD029
:100510000D05AE46AC431B031B0B794D52429D416A
:10052000202366469B1B14D31746F7403818002635
:100530000090744160462F460741E41900989D40A1
:100540002818664116D4714671189A4025D50123A2
:1005500020E093182A466A415200002B00D0521C1A
:100560001E23203E9B1B002B61DD3541EE17281812
:100570006641E8D5001876415B1C9A4000D3401CC8
:100580004B05F3181524E34010D3002B52D07146CD
:100590007118D30FC01802D3491C05B0F0BD012358
:1005A000DB079A42F9D140084000F6E701225205E4
:1005B000B21801D1002853D00123CC0ADB029943A1
:1005C000891E002A08D1020C03D0020C0004103945
:1005D00002E00246002020390023550B05D112020B
:1005E0000823550B01D152010D23550C01D11201E5
:1005F0001B1DD50C01D192009B1C150D01D1520081
:100600005B1C2025EE1A01E02CE022E00546F540B7
:1006100015439840CA1AE10769181305C918002A3A
:10062000BBDA032040070818C10FC9070FE0714665
:100630006118B2E7F10740080843711071444A009D
:100640000CD001235B059A42A7D2C90FC90700202D
:10065000A3E74905490D26D1002001E00028F4D187
:1006600000219AE7284D6600002801D0012100E012
:10067000002171185F00002A01D0012600E0002649
:10068000BE19224FA94210D8AE420ED8B14208D0AE
:1006900001256D05E94206D01946A80241401046E1
:1006A0007BE79C4201D0214677E70020394674E77A
:1006B00010B50C465C4005D50124E4076340FFF704
:1006C0000CFF10BDFFF778FE10BD30B40C465C4047
:1006D00004D50124E407634030BC6DE630BCFCE681
:1006E00070B50124E40761400D465D4002D4FFF778
:1006F00063FE70BD6340FFF7F0FE70BDFF070000B2
:100700000000F0FF0000F07F0000E0FF0000F87F35
:10071000F0B5F94D0C091E092C402E402F468BB028
:10072000A7437DD0B543FCD0002E7AD0002CFCD05E
:100730000D465D40ED0F2543AC1BFF25AD0464194C
:100740000894C502440DC9022143500DDC02044344
:100750000120C00701430443D2020191200C110C77
:1007600000958C46010423468B430A916146090497
:10077000E24D8A430991010A7D444919803909787B
:1007800005464D4301266D18F605751B6943C90CD6
:10079000640B891C4C436418B5012C1B250C2E04DA
:1007A000B4434C434D43210C691889090591009DC0
:1007B000E90701D00121C90704912C460199670876
:1007C000CD072F434C08059DE10B4D432D0C2946C9
:1007D0006646754302950D4645432E46029D7D1B98
:1007E000B44100950D465D4301942C0C2F040D4639
:1007F0005543AE462D0C3D43029503947546049C2B
:100800002D04641B049406D2029C039D641C0026E4
:1008100075410395029401AC70CC009F7D1B01E0F3
:100820003EE162E1B4410904009507910194059904
:10083000A4086143090C0C464443650BE7040C46CD
:1008400066467443A646640B3C4303950294744683
:10085000049DE4042C1B049406D2029C039D641C9A
:10086000002675410395029401AC70CC009F7D1B5E
:10087000B44101940C465C430095650FE7000C46BB
:100880005443A646640F3C43039502947446049D6A
:10089000E4002C1B049406D2029C039D641C0026D9
:1008A00075410395029401AC70CC009F7D1BB4414F
:1008B000AE09AF06049DC900AD092F43049DA406EF
:1008C000AD060495079D344369180791059DE10B1A
:1008D0004D432D0C29466646754302950D4645430A
:1008E0002E46029D7D1BB44100950D465D4301944B
:1008F0002C0C2F040D465543AE462D0C3D4302955E
:1009000003947546049C2D04641B049406D2029C37
:10091000039D641C002675410395029401AC70CCC4
:10092000009F7D1BB44101948C050694079C890AA5
:10093000611800950791019C0599A4086143090C71
:100940000D464543680BEF040D46644665436C0B4A
:100950003C43049FED047D1BAC4602D20025641C81
:100960006841009E019D371B85410846584301950B
:100970000C46460FC5005443600F28436546E4000B
:100980002C1B02D20025401C6E41019D3F1AB5412F
:100990002846BD09800628438446A009BF064E02AA
:1009A0000699A40676180743079D002068410A9916
:1009B000079019430020099B00906046FF191343DC
:1009C0004041E20F64003A43A4460446D71A8C41E2
:1009D000A04203D90120009020463A46C70F941840
:1009E00040416246D20F2243644664000494009C56
:1009F000BE466400D71AA446044602978C41774647
:100A0000002F01D1A04204D96046401C8446029ABE
:100A10002046C40FA64694184041049A0546D20FBA
:100A2000224364466400D31A8D417146002901D1E6
:100A3000A84202D928461A46641C10430122002805
:100A400000D0164361020020079B891904465C41CF
:100A50000223002C02DB491813466441089DCE0A8C
:100A60002D145D194B056705E10A2C050D19089930
:100A70003E43C9076940002B08D0934006D30022AB
:100A8000761C5141002B01D1760876001C4A002DBE
:100A900043DB154241D0AA433FD030460BB0F0BDF6
:100AA00006180D464D41174C7642AC411AD39518A5
:100AB0001C465C41134A6D42A24113D301225205E8
:100AC0004C00D4420AD15C00D4420BD04B4002D53A
:100AD00092021143E2E749004908DFE75940C90F94
:100AE000C90718E000200849D8E7054801420DD1A0
:100AF0000342F7D0F2E700000000FF0724220000C5
:100B00000000F07F0000E0FF0000F87F114859402E
:100B10000143C01241400020C0E70123089A9B0610
:100B20009A4205DC032252078918C90FC907B5E7A5
:100B3000052252078918074A1143D2125140ADE7E6
:100B400070B515461C4602460B4628462146FFF75F
:100B5000DFFD70BDFFFFFF7F1F22030C02D10F22BC
:100B6000000402D0030E03D004E0002001467047C9
:100B70000002083A030F01D10001121F830F01D1B7
:100B80008000921E002801DB4000521E1205511801
:100B90004205C012411810467047C10FC90700D066
:100BA0004042012292071143D6E701218907D3E78A
:100BB000F0B58B4C0F09254689B0BD437BD01D098C
:100BC0002646AE43FAD00E465E402740F60F3E431F
:100BD000254071D024012142FBD0FF24AD19A4048B
:100BE0002D1B039501252D05DB02DB0AC9022B43D2
:100BF000C90A29431E010901040F130F05012143EE
:100C00001701880B820391432D098C46A90B1E43C3
:100C10008A039543B30B9A0396433F09BA0B940397
:100C2000A74302962E467E430497B6464E19D7191F
:100C30000C460196544305977E43371B7646BF1BEF
:100C40003601B646BE0B361900967646BC043719F7
:100C5000009C01D3641C00946400002F01D0012685
:100C60003443029E049F754366467E430496760095
:100C700034196E0034190094029C019E1C196643BD
:100C8000751BAE46069465464519059C05956C4353
:100C9000594375460891691A0191049E01465143D2
:100CA000A41B0491611A009C0791E10605D061091B
:100CB0000122114302E072E06EE06109089D002705
:100CC0002C0A2D066918049D7C412A0A2D066918F4
:100CD000019D6241AC0DAD026D185441079A910D12
:100CE000920255196141029A644658435443069B47
:100CF000059A5A43121A131B9A0E9B015B187A41EC
:100D0000010B0005C3185141220A200644195A411B
:100D10009A4200D2491C01204002814203D315238C
:100D20000226F64302E014230326F6432020C51AC8
:100D3000A9401746AF40DA400A4320460399D840FD
:100D40000914731819055118039A3843D2075140F2
:100D5000AC4009D00122944006D30022401C5141EE
:100D6000002C01D1400840001E4A934212D30122B8
:100D700003989206904207DB0520400709181A489D
:100D80000143C012414004E0032040070818C10F8E
:100D9000C907002009B0F0BD0020F107FAE70518E7
:100DA0000C464C4111486D42A04115D394181A4687
:100DB0005A410E48644290410ED301204A0040053A
:100DC000824209D35A00824206D35940C90F084AC9
:100DD000C90700201143DDE700200649DAE70000DB
:100DE0000000FF07FE070000FFFFFF7F0000E0FF9D
:100DF0000000F07F0000F87F0102C21504D001233B
:100E0000DB071943002A0ADB9E239A1A02D40846FC
:100E1000D0407047FF2241001206914201D90020C4
:100E20007047C017C0437047754600F025F8AE46BE
:100E3000050069465346C008C000854618B020B575
:100E4000FFF79AF960BC00274908B6460026C0C5DE
:100E5000C0C5C0C5C0C5C0C5C0C5C0C5C0C5403D72
:100E600049008D46704710B50446C046C04620462E
:100E7000FFF771F910BD000000487047D80000204E
:100E800001491820ABBEFEE7260002007047F8B506
:100E900000248026052507462D073046E0403842CD
:100EA00001D0012200E000220821284600F0FEF8CF
:100EB00000222021284600F0F9F8012220212846AE
:100EC00000F0F4F8641CE4B2082CE6D300221021F0
:100ED000284600F0EBF801221021284600F0E6F841
:100EE000F8BD10B5202000F01DF810BD72B6FEE769
:100EF00070B5044600F0E0F80546601C02D00448D6
:100F00000078241800F0D8F8401BA042FAD370BD36
:100F10000C000020202802D10149012008707047F0
:100F20000000002070B5084D0446E868204203D058
:100F3000EC60204600F00AF82869204203D02C61BA
:100F40002046FFF7E7FF70BD001802407047000021
:100F5000F0B5002303249AE02A4601259D402A404B
:100F60007ED00E79B607B60F012E01D0022E16D113
:100F700086682746B4465E00B646B7406646BE431E
:100F8000B446CF687646B7406646374387604668C2
:100F9000AE430D79ED06ED0F9D40354345600D796B
:100FA000ED43AD0708D0C5685F002646BE40B54397
:100FB0008E68BE402E43C6600D79AD07AD0F022D81
:100FC0000ED1DD08AD002D18AC462D6A5E07F60E79
:100FD0000F27B740BD430F69B7402F4365462F62C7
:100FE00005685F002646BE40B5430E79B607B60FCA
:100FF000BE402E4306604D68AD03AD0F46D09E083F
:10100000264DB6007519AC462D6E9E07F60E0F27BD
:10101000B740BD4305273F07B84201D100270FE085
:101020001F4FB84201D101270AE01E4FB84201D13B
:10103000022705E01C4FB84201D1032700E0052735
:10104000B7402F43154D664637662D684E68954369
:10105000F60200D51543114F3D607D68954300E0D1
:1010600014E04E68B60200D515437D600B4D803507
:101070006E684F689643BF0300D516436E602E68B6
:101080004F689643FF0300D516432E605B1C0A6829
:101090001546DA4000D05FE7F0BD000000180240BE
:1010A0000004005000080050000C0050002A01D03D
:1010B0008161704781627047014880687047000015
:1010C0000C00002070B5024640325378202B1CD112
:1010D0001378012B19D00123137024245470046851
:1010E00025689D432560046825681E03B543256077
:1010F000046825680D432560006801681943016094
:10110000202050700020107070BD022070BD70B59E
:10111000024640325378202B1BD11378012B18D074
:10112000012414702423537003681D68A5431D60B7
:1011300005682B680F263602B3430902194329605C
:101140000068016821430160202050700020107069
:1011500070BD022070BD000070B5040006D02546A9
:10116000403568780026002802D005E0012070BDD7
:101170002E70204600F072F9242068702068016803
:101180004908490001600F21606809068843216809
:10119000086121688A680120C00382438A60E1688F
:1011A0000129A1682FD02122920211432268916067
:1011B0000121E268C902022A2268536825D08B43C4
:1011C000536021684A68124B1A434A602168CA6812
:1011D0008243CA60616920690843A1690902084322
:1011E0002168C860216AE0690843216808602068B6
:1011F0000168012211430160666420206870266343
:10120000AE70002070BD0143D0E70B43D8E700006B
:1012100000800002FFB5054604464035687881B07D
:10122000202878D12878012875D001202870FFF770
:1012300043FF0746012200901923D103204600F006
:101240009DFF00283CD1222068701020A870002645
:10125000666403986062049860856663618D2F48B8
:10126000FF2903D9FF22228500903BE0618D218573
:1012700000903DE02046029900F06AFF16E000F081
:10128000B7FF00281CD12068406A616A0870606A54
:10129000401C6062208D401E81B22185608D401E01
:1012A0006085608D002801D000290CD0608D0A99DE
:1012B00000283A462046E2D100F0ECFF00281CD07E
:1012C000012005B0F0BD00970022802120460A9B36
:1012D00000F054FF0028F3D1608DFF2805D9FF22CC
:1012E0002285009601231B06C4E7608D20850096A9
:1012F000208D0123C2B25B06BCE721682020C861B3
:1013000021684A68064B1A404A606870AE702E70B9
:101310000020D6E7FFE70220D3E70000002400808A
:1013200000E800FEFFB5054604464035687881B008
:10133000202877D12878012874D001202870FFF761
:10134000BBFE0746012200901923D103204600F07E
:1013500015FF002851D1212068701020A8700026A8
:10136000666403986062049961856663628D394999
:10137000FF2A03D9FF222285CB0206E0628D228557
:1013800001235B061204120C0FD0226800789062D1
:10139000606A401C6062608D401E6085208D401E2A
:1013A0002085401CC2B2009101E00022009120463D
:1013B000029900F0CDFE16E000F097FF00281CD146
:1013C000606A216800788862606A401C6062608D93
:1013D000401E6085208D401E80B22085618D0029D1
:1013E00001D000280CD0608D0A9900283A4620468A
:1013F000E2D100F04FFF00281DD0012005B0F0BD64
:1014000000970022802120460A9B00F0B7FE0028AA
:10141000F3D1608DFF2806D9FF22228501231B0608
:101420000096C4E714E0608D20850096208D01238E
:10143000C2B25B06BBE721682020C86121684A6808
:10144000054B1A404A606870AE702E700020D5E7D8
:101450000220D3E70020008000E800FE30B58DB008
:10146000044614216846FEF7B7FE182105A8FEF7CA
:10147000B3FE17492068884227D120200025059017
:10148000079505A800F0D6F8002801D0FFF72EFD3B
:10149000104C616B022001436163616B0295014056
:1014A000032000020B91009012200190062004906E
:1014B000039569460848FFF74BFDE16B01204005A5
:1014C0000143E163E16B01400B910DB030BD0000C1
:1014D000005400400010024000040050024881689F
:1014E00002788918816070470C00002010B5084808
:1014F00000240168821511430160032000F00AF8FE
:10150000002801D0012401E000F028F8204610BD99
:101510000020024070B50F4E0024317805460029A6
:1015200015D07D20C000FEF759FE01460A4800682C
:10153000FEF754FE00F00AFC002808D1042D06D264
:1015400000222946401E00F02BF8756000E00124BF
:10155000204670BD0C0000201800002008B5094886
:1015600001680122114301600068104000900548A5
:101570004038C26B01040A43C263C06B084000904C
:1015800008BD000040100240002805DBC106C90E5E
:1015900001208840014908607047000000E100E038
:1015A00010B501F019F910BD10B50F4C21680322D8
:1015B0005202914301432160C11FFF39FA390ED114
:1015C0000A480621006848430949FEF707FE401C07
:1015D00002E0002805D0401E61694905F9D40020C9
:1015E00010BD032010BD0000007000401800002056
:1015F00040420F000D4A0028106803D0C008C00008
:10160000401C01E0C008C0001060094803690422C2
:1016100013430361012906D040BF20BF20BF0169E9
:1016200091430161704730BFF9E70000007000404E
:1016300000ED00E0F8B50446006800264D4D80033B
:1016400058D54C4800274038C06BC00009D44948E1
:101650004038C26B01040A43C263C06B08400127D3
:10166000009045480168821511430160FFF724FD91
:10167000009005E0FFF720FD0099401A022825D8C8
:101680003D480068C005F5D5E86903210902084016
:101690000FD0616981420CD0E86903210902EA692F
:1016A0008843012109040A43EA61EA698A43EA613D
:1016B000E861C0070FD0FFF7FFFC009008E0FFF7DC
:1016C000FBFC0099411A2D48814201D9032609E00B
:1016D000E8698007F3D5E869032109028843616955
:1016E0000843E861002F05D022484038C26B01044E
:1016F0008A43C2632078C00705D0686961688008A2
:101700008000084368612078800606D56869032157
:1017100009038843A168084368612088400411D503
:101720006869216980008008084368610121206997
:101730008907884206D10F484038C1680122120447
:101740001143C1602088000512D56869032189030F
:101750008843E168084368610121E06889038842A1
:1017600006D104484038C168012212041143C16007
:101770003046F8BD40100240007000408813000061
:10178000F8B50F46060043D04D4D28684007400F7E
:10179000B84213D22868C008C00038432860FFF759
:1017A0008BFC044605E0FFF787FC011B454881429E
:1017B00061D828684007400FB842F4D13068424CE5
:1017C00081070DD5400704D5A06807210903084308
:1017D000A060A0680F2109028843B1680843A06097
:1017E0003078C00732D0706801280AD002280BD0A8
:1017F00000280FD03449403103280ED0C969890729
:1018000004E02168890301E021688901002906DBE1
:101810000120F8BD21684905F8E7096AEFE7A168EA
:10182000C908C9000143A160FFF746FC009006E02B
:10183000FFF742FC0099411A224881421BD8A06858
:10184000382108407168C9008842F1D128684007F2
:10185000400FB84217D91A480168C908C90039436E
:101860000160FFF729FC054607E0FFF725FC411B57
:101870001448814201D90320F8BD1148006840078F
:10188000400FB842F1D13078400706D5A068072153
:1018900009038843F1680843A06000F01DF8A168BF
:1018A0003C2289091140094A515CC906C90EC84049
:1018B0000749086007480068FFF72CFEF8BD0000E4
:1018C0000020024088130000001002406029000838
:1018D000180000201000002010B5204CA068204AFD
:1018E0008006400F16D0A0688006410F50100129D5
:1018F0000FD0A1688906490F022912D0A06880067E
:10190000400F042823D0A0688006400F032821D070
:10191000002010BD206801218004400F8140104646
:1019200012E0E1688B07E1689B0F4906490F491CEB
:10193000032B00D01046FEF751FCE1684904490E24
:101940004843E168490F491CFEF748FC10BD0120DF
:10195000C00310BD7D20000210BD00000010024039
:101960000024F400F8B504007ED020783827C007A2
:10197000E94D002846D0A868E96838408907890FF2
:10198000102802D008280BD001E0032908D001203C
:101990006268000482420AD129680143296015E087
:1019A000286880032ED560680028DDD02AE0052352
:1019B00001211B0489049A422A6802D10A432A6041
:1019C000EAE782432A602868884328606068002824
:1019D0000CD0FFF771FB064604E0FFF76DFB801BA0
:1019E000642873D828688003F7D50BE0FFF764FB01
:1019F000064604E0FFF760FB801B6428F1D82868E6
:101A00008003F7D42078800769D5A868E968384052
:101A10008A070721920FC902102802D0002813D08C
:101A200001E0022A10D0E068002846D028688843E8
:101A30002169084328602868FF2101310843286094
:101A4000FFF73AFB06462CE02A68520502D5E26809
:101A5000002A89D06A687F231B029A4363691B02AC
:101A60001A436A60002800E08DE00ED128688843A0
:101A7000216908432860286801218004400F8140C3
:101A8000A648FEF7ABFBA6490860A6480068FFF72A
:101A900041FD002877D122E0FFF70EFB801B0228D2
:101AA0009FD828684005F7D568687F2109028843D8
:101AB000616909020843686011E02968FF2001306C
:101AC00081432960FFF7F8FA064605E098E0FFF742
:101AD000F3FA801B022884D828684005F7D42078C0
:101AE000914E00072ED5A8688006400F03280AD023
:101AF000A0690028306A16D0012108433062FFF740
:101B0000DBFA07460BE0306A80071BD5A069002886
:101B10009FD017E0FFF7D0FAC01B022870D8306AB8
:101B20008007F7D50EE0400840003062FFF7C4FAA6
:101B3000074604E0FFF7C0FAC01B022860D8306AED
:101B40008007F7D4207840076CD5A8680027800666
:101B5000400F042818D0E86BC00008D4E96B0120BE
:101B600000070143E963E96B0140012700916F48D9
:101B70000168C90519D40168821511430160FFF796
:101B80009BFA00900DE083E0F06980074AD5A068D9
:101B900000287DD046E0FFF78FFA0099401A02280E
:101BA0002ED862480068C005F5D5A168012910D07B
:101BB00004200529F16911D049084900F161F16952
:101BC0008143F161A068002816D0FFF775FA0090F4
:101BD0000EE0F06901210843F061F3E70143F16190
:101BE000F7E7FFF769FA0099411A5148814265D831
:101BF000F0698007F5D50EE0FFF75EFA009007E088
:101C00005CE0FFF759FA0099411A4948814255D8DA
:101C1000F0698007F5D4002F04D0E96B012000079C
:101C20008143E963E069002873D0A9688906490FF8
:101C300002294DD0012636060228286805D0B04377
:101C40002860FFF739FA04463AE0B0432860FFF70E
:101C500033FA074604E0FFF72FFAC01B02282DD8FD
:101C600028688001F7D4616A206AA26A0843E16AA1
:101C7000120211430843216B0843E9682D4A1140C1
:101C80000843E860286830432860E868012100E0E4
:101C90003DE009070843E860FFF70EFA044604E058
:101CA000FFF70AFA001B022808D828688001F7D538
:101CB0002FE0FFF701FA001B022801D90320F8BD2D
:101CC00028688001F5D4E8681B490840E86020E0F6
:101CD0000128F4D0E868226A8107890F914216D161
:101CE0007021626A0140914211D17F21A26A0902EA
:101CF0000140120291420AD11F214904E26A0140C7
:101D0000914204D1400F216B4007884201D001204D
:101D1000F8BD0020F8BD0000001002400024F400CF
:101D20001800002010000020401002400070004009
:101D3000881300008C80C11FFCFFFEEF0248016980
:101D4000022211430161704700E000E0094910B52B
:101D5000401E884201D9012010BD074C606103215B
:101D6000081F00F039FD0020A0610720206100203D
:101D700010BD0000FFFFFF0000E000E00248016925
:101D8000022291430161704700E000E07047704714
:101D9000704770B5040005D025462035687F0028BF
:101DA00002D006E0012070BD00202877204600F018
:101DB00017F802206877211D206800F0C9FC012275
:101DC00040342272AA77EA7722706270A270E270C1
:101DD00022716271A271E2716A77002070BD000009
:101DE00008B50068094988420FD109480268C9133B
:101DF0000A4302600068002208400090012113207D
:101E0000FFF7CEFB1320FFF7BFFB08BD002000400B
:101E100040100240014620314A7F012A01D00120B2
:101E2000704702224A770168CB6801221343CB60D6
:101E300000680949884202D00849884207D1816870
:101E4000074B1940062905D0DB1F994202D00168D3
:101E50001143016000207047002C01400004004045
:101E6000070001000168CA6852085200CA60016890
:101E70000A6A084B1A4207D10A6A9B101A4203D118
:101E80000A68520852000A60012120304177002080
:101E9000704700001111000070470000F8B50446BB
:101EA0000068C66805690027A907002913DAB10789
:101EB00011D5F91E01610120207720688069800713
:101EC000204602D0FFF7E8FF04E000F08BF8204640
:101ED00000F089F82777680716D5700714D5042015
:101EE0002168C0430861022020772068806980054E
:101EF000800F204602D0FFF7CFFF04E000F072F819
:101F0000204600F070F82777280715D5300713D53D
:101F100008202168C0430861042020772068C06938
:101F20008007204602D0FFF7B7FF04E000F05AF820
:101F3000204600F058F82777E80616D5F00614D5A5
:101F400010202168C0430861082020772068C069FC
:101F50008005800F204602D0FFF79EFF04E000F0CE
:101F600041F8204600F03FF82777E80708D0F0074F
:101F700006D001202168C0430861204600F034F8F3
:101F8000280601D4A80407D5300605D521681348D2
:101F900008612046FFF7FBFEE80507D5300605D5AA
:101FA00021680F4808612046FFF7F0FE680608D553
:101FB000700606D540202168C0430861204600F025
:101FC0002BF8A80608D5B00606D520202168C04306
:101FD00008612046FFF7DCFEF8BD00007FDFFFFF51
:101FE000FFFEFFFF7047704710B500680849884240
:101FF0000CD100F0EFFA07494888421C4A8002469B
:10200000FF3AF53A02D100204880087010BD000068
:1020100000200040000000207047FEE701688A6948
:10202000D243920701D400228A6200688169C943C1
:10203000C90703D081690122114381617047000003
:10204000F7B50446006882B0816900262746C906B4
:10205000403735460092002945DA1021C16132E04F
:102060000398401C2FD0FFF727F80099411A0398D6
:10207000814201D8002826D12068416801229203BC
:102080001140BA788369DB431B0417D401239B03F7
:10209000994213D0202A11D0416819434160FFF7BB
:1020A0000BF800900AE0FFF707F801460098081ABD
:1020B000192803D920200543012604E020688069FF
:1020C000C0438006EFD420688069C043800602D5F3
:1020D000002EC5D004E0002E02D121682020C86166
:1020E00004200543012621688869C20504D5012220
:1020F00015431202CA610126410508D508210D4386
:10210000CA012168CA610126800502D40AE080055F
:1021100006D50220054321680002C861012601E0BE
:10212000002E0FD02046FFF779FF20684168074A4C
:1021300011404160606C284360642020787000206A
:10214000B8703870304605B0F0BD000000E800FE01
:10215000890510B5890D12041143029C19430268C8
:102160002143490050684908630D034C23439843B9
:102170000843506010BD0000FF63FF03F8B51D4623
:1021800017460E46044626E029462046069AFFF7E3
:1021900057FF002801D00120F8BD681C1BD0FEF7B6
:1021A0008BFF0699401AA84201D8002D13D1206850
:1021B0008169304688430CD00020B8420BD1616C55
:1021C000202001436164403460700020A0702070C2
:1021D000E1E70120F1E7206881693046884304D0B7
:1021E0000020B842D0D00020F8BD0120F9E700005F
:1021F000F7B5002520270646044640363EE0204637
:10220000029A0199FFF71CFF002800D001252068E1
:102210008169C943890619D4002D17D18169816963
:10222000C943C90610D41021C1610420606420682C
:10223000C76120684168164A1140416077700020EC
:10224000B0703070012501E000206064FEF734FFBB
:1022500001460298091A0198814201D800280DD13F
:10226000002D0BD120688069C043400706D5606C03
:1022700038436064777000203070012520688069E1
:10228000C043400701D5002DB9D02846FEBD00004F
:1022900000E800FE70B516460D4604461EE03246C4
:1022A00029462046FFF7CCFE002801D0012070BD52
:1022B000FEF702FF801BA84201D8002D0ED1206836
:1022C0008069C043800609D5616C202001436164A8
:1022D000403460700020A0702070E7E720688069BB
:1022E000C0438006DBD4002070BD70B516460D4695
:1022F000044620E0324629462046FFF7A1FE00288A
:1023000001D0012070BD681C15D0FEF7D5FE801BE2
:10231000A84201D8002D0ED120688069C0438007F3
:1023200009D5616C20200143616440346070002055
:10233000A0702070E5E720688069C0438007D9D489
:10234000002070BDF0B587B014216846FDF744FF4A
:102350002A48416B022529434163416B294005917D
:10236000416B042631434163416B31400591416B20
:10237000012421434163406B214F204005900520FB
:10238000002239460007FEF791FE002204211D4875
:10239000FEF78CFE012280211A48FEF787FE009787
:1023A0000027052001946946000702970395FEF770
:1023B000CFFD694613480297009603950194FEF7F6
:1023C000C7FD20200090212000040190694602945E
:1023D0000C48FEF7BDFD8020694691C16946094859
:1023E0000397FEF7B5FD002201210720FFF7D8F87B
:1023F0000720FFF7C9F807B0F0BD00000010024049
:102400003F0300000004005010B51348114901605B
:1024100012494160002181600161416181610122B5
:10242000C161C2600162FEF797FE002801D0FEF78D
:102430005DFD00210848FEF745FE002801D0FEF7AB
:1024400055FD00210448FEF762FE002801D0FEF78A
:102450004DFD10BD0054004038000020B57DB11086
:1024600010B50A48084901603F21416000218160A0
:10247000074A0161C2608161FFF78BFC002801D02F
:10248000FEF734FD10BD0000002000408C0000204D
:10249000E7030000FEE70000F8B5012600247602FD
:1024A000052507462D078020E040384201D0012253
:1024B00000E0002204210F48FEF7F8FD002231461B
:1024C0002846FEF7F3FD012231462846FEF7EEFDD1
:1024D000641CE4B2082CE6D3FF2401340022214618
:1024E0002846FEF7E3FD012221462846FEF7DEFDE1
:1024F000F8BD000000040050F8B500248026052532
:1025000007462D073046E040384201D0012200E066
:10251000002201212846FEF7C9FD00220421284699
:10252000FEF7C4FD012204212846FEF7BFFD641C0E
:10253000E4B2082CE6D3002202212846FEF7B6FDBD
:10254000012202212846FEF7B1FDF8BD10B5FF209B
:10255000FEF79DFC0020FFF79FFF0020FFF79CFF88
:1025600010BD0000FFB581B01D4616460746642128
:10257000FDF734FE0A21FDF731FE154C3846217077
:102580000A21FDF72BFE0F460A21FDF727FE617099
:10259000A77064210298FDF721FE0A21FDF71EFEB7
:1025A000E1700A210298FDF719FE0F460A21FDF796
:1025B00015FE21716771062E02D2A05D0A30A0556A
:1025C000062D02D2605D0A30605505B0F0BD0000F6
:1025D0001E00002010B5114C6078062801D10020A3
:1025E00060702078FEF753FC0C4A6178921C901DB5
:1025F000525C0329805C04D2491C6170FFF74CFFD8
:1026000003E0491C6170FFF777FF2078DF2803D0D3
:102610004000401C207010BDFE20FBE71C00002085
:10262000704700007FB5054621A000680390002098
:10263000461E0C4601900290012303AA88210096B1
:102640001C48FEF76FFE0A20FEF752FC062301AA83
:10265000892118480096FEF7DDFD6846808840BA5B
:10266000FEF7A3FA0022144BFEF7A2FA134E002243
:102670003346FEF74DF80022114BFEF726F8FDF722
:102680005DFE28606846808840BAFEF78EFA002218
:102690000C4BFEF78DFA00223346FEF739F8002284
:1026A000094BFEF712F8FDF749FE20607FBD0000E0
:1026B000FD0000003800002000E06540E0FFEF4032
:1026C0000080464000405F4000001840704710B551
:1026D000FEF704FF10BD30B591B034216846FDF718
:1026E0007BFD002501200D950E950F95400210955C
:1026F000FEF75AFF0224E001039000944020059069
:1027000008200A9080030B900794000304950C9016
:10271000099508946846FFF725F9002801D072B69C
:10272000FEE707200DA931C102210DA81095FFF782
:1027300027F8002801D072B6FEE711B030BD70470F
:1027400010B50248FFF7AAFB10BD00008C00002066
:1027500070B502681B4B1C4E984201D0B04203D1A9
:102760007024A2434C682243184C194D984208D05B
:10277000B04206D0174EB04203D0A04201D0A842CA
:1027800004D103263602B243CE6832438026B243D8
:102790004E69324302608A68C2620A688262984265
:1027A00003D0A04201D0A84201D1096901630121EF
:1027B00041610169C90703D0016949084900016104
:1027C00070BD0000002C01400004004000440140A6
:1027D00000480140002000408307FF22DB0E9A40A2
:1027E0008907090E9940002808DB830809489B00E7
:1027F0001B18186890430843186070470007000FC3
:102800000838830804489B001B18D8699043084384
:10281000D861704700E400E000ED00E0FEF766FEDE
:10282000FFF759FFFFF78EFDFFF7EEFDFFF718FEEC
:102830000A20FEF75DFBFFF789FEFFF79FFA0121F3
:102840000020FEF7D7FE174C207801280BD0FFF7A9
:102850007DFE1548FFF706FBFFF790FA01210020E7
:10286000FEF7C8FEF0E7FFF769FA0F48FFF7D2FA64
:102870000C490831081FFFF7D5FE0C4EA068314601
:1028800000F016F8FEF7B8FA85B23146606800F03D
:102890000FF8FEF7B1FA80B2042301222946FFF7B0
:1028A00061FED1E7000000208C00002000002041E4
:1028B00070B5420064414B005C41120E39D01B0ED2
:1028C00038D0FF2A3CD0FF2B3AD040024902400AC0
:1028D000490A060045184E43000A090AD21848431F
:1028E000ED017F3A0104731A4019190C4318990F2E
:1028F00004D001215B0849075B1A521CD80904D394
:10290000401CF50301D19D0607D0FF2A08D2D5054A
:1029100006D0E4072043401970BD0125A843F4E721
:10292000002A01DCE00770BD2402FF202043C0051F
:1029300070BD1B0EFF2A03D0FF2B01D0E00770BD36
:10294000FF2645003606B54206D84D00B54203D8ED
:10295000D218FF2A00D0E7E7004870BD0000C07F12
:102960000000000000000000000000000000000067
:102970000000000000000000000000000000000057
:10298000010000000200000003000000040000003D
:102990000600000007000000080000000900000019
:1029A00080807F7E7D7C7B7A79787776767574738C
:1029B000727171706F6E6E6D6C6C6B6A6A6968684B
:1029C000676666656464636362616160605F5F5EE1
:1029D0005E5D5D5C5C5B5B5A5A5959585857575657
:1029E00056555555545453535252525151505050BC
:1029F0004F4F4F4E4E4D4D4D4C4C4C4B4B4B4A4A0E
:102A00004A49494948484847474747464646454551
:102A1000454444444443434343424242424141418A
:102A2000402A0008000000203800000004010008CF
:102A3000782A000838000020000700002001000864
:102A40000000000000000000000000000100000085
:102A500004000000000000000024F400FE0000005C
:102A6000000000003F065B4F666D7D077F6FBF86ED
:082A7000DBCFE6EDFD87FFEF6F
:04000005080000C12E
:00000001FF
